00001320141203                                                                                                                                        
110013018001000251652014120320141203COP3TR.ADMINISTRACIONES YOYJO S EN00112350                                                                        
2220141203201412030135CALLE CIEN                TFSS200000081750000MARCELO RO000000000000001000944011                                    092455       
230011200000081750000                                                                                                                                 
2220141203201412030135CALLE CIEN                TFSS200000030000000MARCELO RO000000000000001000944011                                    092610       
230021200000030000000                                                                                                                                 
2220141203201412030047NORMANDIA                 TFSS200000123600000ABRAHAM CR000000000000000000002110                                    092639       
230031200000123600000                                                                                                                                 
2220141203201412030820SIETE DE AGOSTO           TFSS200000218000000MONICACRUZ000000000000000000002572                                    092956       
230041200000218000000                                                                                                                                 
2220141203201412030257QUIRIGUA                  TFSS200000118300000brian cast000000000000000000002091                                    105411       
230051200000118300000                                                                                                                                 
2220141203201412030960LOS CENTAUROS             TFSS200000050000000lauragutie000000000000000000002658                                    105719       
230061200000050000000                                                                                                                                 
2220141203201412030391GALERIAS                  TFSS200000038000000laura palm000000000000000000004200                                    110324       
230071200000038000000                                                                                                                                 
2220141203201412030391GALERIAS                  TFSS200000137000000julian v. 000000000000000000000001                                    112030       
230081200000137000000                                                                                                                                 
2220141203201412030631EL NOGAL                  TFSS200000116000000PAULATORRE000000000000001014979495                                    112105       
230091200000116000000                                                                                                                                 
2220141203201412030319CS INST EL LAGO           TFSS200000030000000SARA MIRAM000000000000000000004118                                    113159       
230101200000030000000                                                                                                                                 
2220141203201412030023PUENTE LARGO              TFSS200000104500000JUAN CRUZ 000000000000000000002200                                    114856       
230111200000104500000                                                                                                                                 
2220141203201412030418LA ESTRADA                TFSS200000120000000karely for000000000000000000002150                                    120555       
230121200000120000000                                                                                                                                 
2220141203201412030391GALERIAS                  TFSS200000078400000SAMUEL ARI000000000000000000002016                                    123939       
230131200000078400000                                                                                                                                 
2220141203201412030181MARLY                     TFSS200000210400000alma monro000000000000000000002288                                    125119       
230141200000210400000                                                                                                                                 
2220141203201412030391GALERIAS                  TFSS200000113200000juan perez000000000000000000002353                                    130745       
230151200000113200000                                                                                                                                 
2220141203201412030391GALERIAS                  TFSS200000118700000dianaperez000000000000000000002354                                    130932       
230161200000118700000                                                                                                                                 
2220141203201412030136CHAPINERO                 TFSS200000070000000ANDRESSANC000000000000000000002448                                    142028       
230171200000070000000                                                                                                                                 
2220141203201412030074LAS AGUAS                 TFSS200000080200000martin oso000000000000000000004036                                    151306       
230181200000080200000                                                                                                                                 
2220141203201412030820SIETE DE AGOSTO           TFSS200000206400000daniel est000000000000000000002226                                    153354       
230191200000206400000                                                                                                                                 
2220141203201412030627CENTRO ANDINO             TFSS200000320000000HERM GACHA000000000000000000002155                                    160552       
230201200000320000000                                                                                                                                 
2220141203201412030331SAN JOSE                  TFSS200000015700000mariana ra000000000000000000004111                                    161043       
230211200000015700000                                                                                                                                 
2220141203201412030032SANTAFE                   TFSS200000143200000MARIA ARIZ000000000000098041051337                                    173511       
230221200000143200000                                                                                                                                 
3300130180010002516500000000000000000000002200002523350000COP                                                                                         
88999999999999999999000047                                                                                                                            
