00001320141204                                                                                                                                        
110013018001000251732014120420141204COP3TR.ADMINISTRACIONES YOYJO S EN00112350                                                                        
2220141204201412040391GALERIAS                  TFSS200000037010000000000000000000000000000000000000000000000004044                      092202       
230011200000037010000                                                                                                                                 
2220141204201412040391GALERIAS                  TFSS200000038870000000000000000000000000000000000000000000000004045                      093148       
230021200000038870000                                                                                                                                 
2220141204201412040627CENTRO ANDINO             TFSS200000045660000000000000000000000000000000000000000000000004003                      101028       
230031200000045660000                                                                                                                                 
2220141204201412040391GALERIAS                  TFSS200000045905000000000000000000000000000000000000000000000004144                      104901       
230041200000045905000                                                                                                                                 
2220141204201412040583LOURDES                   TFSS200000047355000000000000000000000000000000000000000000000004117                      105504       
230051200000047355000                                                                                                                                 
2220141204201412040318RICAURTE                  TFSS200000046325000000000000000000000000000000000000000000000004116                      114935       
230061200000046325000                                                                                                                                 
2220141204201412040242CALLE 80                  TFSS200000058925000000000000000000000000000000000000000000000004168                      132628       
230071200000058925000                                                                                                                                 
3300130180010002517300000000000000000000000700000320050000COP                                                                                         
88999999999999999999000017                                                                                                                            
