00001320141203                                                                                                                                        
110013018001000251322014120320141203COP3TR.ADMINISTRACIONES YOYJO S EN00112350                                                                        
2220141203201412030046LAS FERIAS                TFSS200000124600000000000000000000000000000000000000000000000002276                      121223       
230011200000124600000                                                                                                                                 
2220141203201412030573C.S. UNI15                TFSS200000086000000000000000000000000000000000000000000000000002545                      182013       
230021200000086000000                                                                                                                                 
3300130180010002513200000000000000000000000200000210600000COP                                                                                         
88999999999999999999000007                                                                                                                            
