00001320141204                                                                                                                                        
110013018001000251652014120420141204COP3TR.ADMINISTRACIONES YOYJO S EN00112350                                                                        
2220141204201412040142INDUMIL                   TFSS200000127540000LOIC LICON000000000000001000588536                                    090759       
230011200000127540000                                                                                                                                 
2220141204201412040820SIETE DE AGOSTO           TFSS200000230080000JOHANCAMP0000000000000000000000000                                    091638       
230021200000230080000                                                                                                                                 
2220141204201412040130EL CAN                    TFSS200000072750000valentina 000000000000001141318486                                    092918       
230031200000072750000                                                                                                                                 
2220141204201412040036SALITRE PLAZA             TFSS200000034870000elizabeth 000000000000000000004055                                    102847       
230041200000034870000                                                                                                                                 
2220141204201412040317WORLD TRADE CENTER        TFSS200000030000000CRISTIAN R000000000000000000000001                                    103825       
230051200000030000000                                                                                                                                 
2220141204201412040317WORLD TRADE CENTER        TFSS200000098400000CRISTIAN R000000000000000000000001                                    104008       
230061200000098400000                                                                                                                                 
2220141204201412040391GALERIAS                  TFSS200000104000000MARIA AZA 000000000000000000000000                                    110315       
230071200000104000000                                                                                                                                 
2220141204201412040126PRINCIPAL                 TFSS200000040585000MARIA CARD000000000000000000004161                                    110752       
230081200000040585000                                                                                                                                 
2220141204201412040391GALERIAS                  TFSS200000112000000JUAN SANTA000000000000000000002451                                    113111       
230091200000112000000                                                                                                                                 
2220141204201412040391GALERIAS                  TFSS200000034870000JUAN FLORE000000000000000000004047                                    121127       
230101200000034870000                                                                                                                                 
2220141204201412040583LOURDES                   TFSS200000027500000CATALINA G000000000000000000004117                                    123034       
230111200000027500000                                                                                                                                 
2220141204201412040390LA CASTELLANA             TFSS200000092500000Juan Pedra000000000000000000004077                                    130447       
230121200000092500000                                                                                                                                 
2220141204201412040021UNICENTRO OCCIDENTE       TFSS200000088500000JOHAN GARC000000000000000000002568                                    132055       
230131200000088500000                                                                                                                                 
2220141204201412040391GALERIAS                  TFSS200000034870000ANDRES M. 000000000000000000004050                                    132456       
230141200000034870000                                                                                                                                 
2220141204201412040042AVENIDA JIMENEZ           TFSS200000043455000KARLA AGUI000000000000000004139000                                    143558       
230151200000043455000                                                                                                                                 
2220141204201412040393CARVAJAL                  TFSS200000086000000alejo diaz000000000000000000002402                                    150201       
230161200000086000000                                                                                                                                 
2220141204201412040242CALLE 80                  TFSS200000073600000NICOLAS RE000000000000000000002000                                    151633       
230171200000073600000                                                                                                                                 
2220141204201412040175BARRIO RESTREPO           TFSS200000054925000Dana Munar000000000000001019764863                                    152107       
230181200000054925000                                                                                                                                 
2220141204201412040391GALERIAS                  TFSS200000130320000LAURAPULID000000000000000000000001                                    152856       
230191200000130320000                                                                                                                                 
2220141204201412040573C.S. UNI15                TFSS200000198000000A Sastoque000000000000000000002507                                    181329       
230201200000198000000                                                                                                                                 
3300130180010002516500000000000000000000002000001714765000COP                                                                                         
88999999999999999999000043                                                                                                                            
