00001320141204                                                                                                                                        
110013018001000251322014120420141204COP3TR.ADMINISTRACIONES YOYJO S EN00112350                                                                        
2220141204201412040139CORABASTOS                TFSS200000149200000000000000000000000000000000000000000000000002578                      082537       
230011200000149200000                                                                                                                                 
2220141204201412040356ZIPAQUIRÁ CENTRO          TFSS200000101000000000000000000000000000000000000000000000000002175                      094912       
230021200000101000000                                                                                                                                 
2220141204201412040262SAN ANDRESITO             TFSS200000127160000000000000000000000000000000000000000000000002271                      102006       
230031200000127160000                                                                                                                                 
2220141204201412040391GALERIAS                  TFSS200000116000000000000000000000000000000000000000000000000002294                      102457       
230041200000116000000                                                                                                                                 
2220141204201412040268PLAZA IMPERIAL            TFSS200000086000000000000000000000000000000000000000000000000002576                      141434       
230051200000086000000                                                                                                                                 
2220141204201412040036SALITRE PLAZA             TFSS200000131320000000000000000000000000000000000000000000000002225                      190015       
230061200000131320000                                                                                                                                 
3300130180010002513200000000000000000000000600000710680000COP                                                                                         
88999999999999999999000015                                                                                                                            
