00001320141203                                                                                                                                        
110013018001000251732014120320141203COP3TR.ADMINISTRACIONES YOYJO S EN00112350                                                                        
2220141203201412030135CALLE CIEN                TFSS200000038870000000000000000000000000000000000000000000000004049                      122456       
230011200000038870000                                                                                                                                 
2220141203201412030908PARALELO 108              TFSS200000045660000000000000000000000000000000000000000000000004007                      142445       
230021200000045660000                                                                                                                                 
2220141203201412030908PARALELO 108              TFSS200000101500000000000000000000000000000000000000000000000004073                      142520       
230031200000101500000                                                                                                                                 
3300130180010002517300000000000000000000000300000186030000COP                                                                                         
88999999999999999999000009                                                                                                                            
